{
  "_format": "hh-sol-artifact-1",
  "contractName": "Groth16VerifyBn254",
  "sourceName": "contracts/Groth16VerifyBn254.sol",
  "abi": [
    {
      "inputs": [],
      "name": "getPairingResult",
      "outputs": [
        {
          "internalType": "bool",
          "name": "",
          "type": "bool"
        }
      ],
      "stateMutability": "view",
      "type": "function"
    },
    {
      "inputs": [],
      "name": "pairingResult",
      "outputs": [
        {
          "internalType": "bool",
          "name": "",
          "type": "bool"
        }
      ],
      "stateMutability": "view",
      "type": "function"
    },
    {
      "inputs": [
        {
          "internalType": "uint256[8]",
          "name": "proof",
          "type": "uint256[8]"
        },
        {
          "internalType": "uint256[1]",
          "name": "input",
          "type": "uint256[1]"
        },
        {
          "components": [
            {
              "components": [
                {
                  "internalType": "uint256",
                  "name": "X",
                  "type": "uint256"
                },
                {
                  "internalType": "uint256",
                  "name": "Y",
                  "type": "uint256"
                }
              ],
              "internalType": "struct Pairing.G1Point",
              "name": "alpha1",
              "type": "tuple"
            },
            {
              "components": [
                {
                  "internalType": "uint256[2]",
                  "name": "X",
                  "type": "uint256[2]"
                },
                {
                  "internalType": "uint256[2]",
                  "name": "Y",
                  "type": "uint256[2]"
                }
              ],
              "internalType": "struct Pairing.G2Point",
              "name": "beta2",
              "type": "tuple"
            },
            {
              "components": [
                {
                  "internalType": "uint256[2]",
                  "name": "X",
                  "type": "uint256[2]"
                },
                {
                  "internalType": "uint256[2]",
                  "name": "Y",
                  "type": "uint256[2]"
                }
              ],
              "internalType": "struct Pairing.G2Point",
              "name": "gamma2",
              "type": "tuple"
            },
            {
              "components": [
                {
                  "internalType": "uint256[2]",
                  "name": "X",
                  "type": "uint256[2]"
                },
                {
                  "internalType": "uint256[2]",
                  "name": "Y",
                  "type": "uint256[2]"
                }
              ],
              "internalType": "struct Pairing.G2Point",
              "name": "delta2",
              "type": "tuple"
            },
            {
              "components": [
                {
                  "internalType": "uint256",
                  "name": "X",
                  "type": "uint256"
                },
                {
                  "internalType": "uint256",
                  "name": "Y",
                  "type": "uint256"
                }
              ],
              "internalType": "struct Pairing.G1Point[2]",
              "name": "public_input",
              "type": "tuple[2]"
            }
          ],
          "internalType": "struct Groth16VerifyBn254.VerifyingKey",
          "name": "vk",
          "type": "tuple"
        }
      ],
      "name": "verifyProof",
      "outputs": [],
      "stateMutability": "nonpayable",
      "type": "function"
    }
  ],
  "bytecode": "0x6080604052348015600f57600080fd5b506113458061001f6000396000f3fe608060405234801561001057600080fd5b50600436106100415760003560e01c80638dd6647214610046578063b771804014610062578063c110f9f114610080575b600080fd5b610060600480360381019061005b9190610f5a565b61009e565b005b61006a610361565b6040516100779190610fcb565b60405180910390f35b610088610377565b6040516100959190610fcb565b60405180910390f35b6100a661098c565b6040518060400160405280856000600881106100c5576100c4610fe6565b5b60200201518152602001856001600881106100e3576100e2610fe6565b5b60200201518152508160000181905250604051806040016040528060405180604001604052808760026008811061011d5761011c610fe6565b5b602002015181526020018760036008811061013b5761013a610fe6565b5b6020020151815250815260200160405180604001604052808760046008811061016757610166610fe6565b5b602002015181526020018760056008811061018557610184610fe6565b5b602002015181525081525081602001819052506040518060400160405280856006600881106101b7576101b6610fe6565b5b60200201518152602001856007600881106101d5576101d4610fe6565b5b6020020151815250816040018190525060006040518060400160405280600081526020016000815250905061022681846080015160006002811061021c5761021b610fe6565b5b6020020151610388565b905060005b600181101561030d577f30644e72e131a029b85045b68181585d2833e84879b9709143e1f593f000000185826001811061026857610267610fe6565b5b6020020151106102ad576040517f08c379a00000000000000000000000000000000000000000000000000000000081526004016102a490611072565b60405180910390fd5b6102fe826102f986608001516001856102c691906110c1565b600281106102d7576102d6610fe6565b5b60200201518885600181106102ef576102ee610fe6565b5b6020020151610486565b610388565b9150808060010191505061022b565b5061034261031e836000015161055e565b83602001518560000151866020015185886040015188604001518a6060015161061c565b6000806101000a81548160ff0219169083151502179055505050505050565b60008060009054906101000a900460ff16905090565b60008054906101000a900460ff1681565b6103906109bf565b6103986109d9565b8360000151816000600481106103b1576103b0610fe6565b5b6020020181815250508360200151816001600481106103d3576103d2610fe6565b5b6020020181815250508260000151816002600481106103f5576103f4610fe6565b5b60200201818152505082602001518160036004811061041757610416610fe6565b5b602002018181525050600060608360c08460066107d05a03fa9050806000810361043d57fe5b508061047e576040517f08c379a000000000000000000000000000000000000000000000000000000000815260040161047590611141565b60405180910390fd5b505092915050565b61048e6109bf565b6104966109fb565b8360000151816000600381106104af576104ae610fe6565b5b6020020181815250508360200151816001600381106104d1576104d0610fe6565b5b60200201818152505082816002600381106104ef576104ee610fe6565b5b602002018181525050600060608360808460076107d05a03fa9050806000810361051557fe5b5080610556576040517f08c379a000000000000000000000000000000000000000000000000000000000815260040161054d906111ad565b60405180910390fd5b505092915050565b6105666109bf565b6000826000015114801561057e575060008260200151145b156105a15760405180604001604052806000815260200160008152509050610617565b6040518060400160405280836000015181526020017f30644e72e131a029b85045b68181585d97816a916871ca8d3c208c16d87cfd4784602001516105e691906111fc565b7f30644e72e131a029b85045b68181585d97816a916871ca8d3c208c16d87cfd47610611919061122d565b81525090505b919050565b60008060405180608001604052808b8152602001898152602001878152602001858152509050600060405180608001604052808b815260200189815260200187815260200185815250905060006018905060008167ffffffffffffffff81111561068957610688610aac565b5b6040519080825280602002602001820160405280156106b75781602001602082028036833780820191505090505b50905060005b60048110156108ef5760006006826106d59190611261565b90508582600481106106ea576106e9610fe6565b5b6020020151600001518360008361070191906110c1565b8151811061071257610711610fe6565b5b60200260200101818152505085826004811061073157610730610fe6565b5b6020020151602001518360018361074891906110c1565b8151811061075957610758610fe6565b5b60200260200101818152505084826004811061077857610777610fe6565b5b60200201516000015160006002811061079457610793610fe6565b5b6020020151836002836107a791906110c1565b815181106107b8576107b7610fe6565b5b6020026020010181815250508482600481106107d7576107d6610fe6565b5b6020020151600001516001600281106107f3576107f2610fe6565b5b60200201518360038361080691906110c1565b8151811061081757610816610fe6565b5b60200260200101818152505084826004811061083657610835610fe6565b5b60200201516020015160006002811061085257610851610fe6565b5b60200201518360048361086591906110c1565b8151811061087657610875610fe6565b5b60200260200101818152505084826004811061089557610894610fe6565b5b6020020151602001516001600281106108b1576108b0610fe6565b5b6020020151836005836108c491906110c1565b815181106108d5576108d4610fe6565b5b6020026020010181815250505080806001019150506106bd565b506108f8610a1d565b6000602082602086026020860160086107d05a03fa9050806000810361091a57fe5b508061095b576040517f08c379a0000000000000000000000000000000000000000000000000000000008152600401610952906112ef565b60405180910390fd5b60008260006001811061097157610970610fe6565b5b60200201511415965050505050505098975050505050505050565b604051806060016040528061099f6109bf565b81526020016109ac610a3f565b81526020016109b96109bf565b81525090565b604051806040016040528060008152602001600081525090565b6040518060800160405280600490602082028036833780820191505090505090565b6040518060600160405280600390602082028036833780820191505090505090565b6040518060200160405280600190602082028036833780820191505090505090565b6040518060400160405280610a52610a65565b8152602001610a5f610a65565b81525090565b6040518060400160405280600290602082028036833780820191505090505090565b6000604051905090565b600080fd5b600080fd5b6000601f19601f8301169050919050565b7f4e487b7100000000000000000000000000000000000000000000000000000000600052604160045260246000fd5b610ae482610a9b565b810181811067ffffffffffffffff82111715610b0357610b02610aac565b5b80604052505050565b6000610b16610a87565b9050610b228282610adb565b919050565b600067ffffffffffffffff821115610b4257610b41610aac565b5b602082029050919050565b600080fd5b6000819050919050565b610b6581610b52565b8114610b7057600080fd5b50565b600081359050610b8281610b5c565b92915050565b6000610b9b610b9684610b27565b610b0c565b90508060208402830185811115610bb557610bb4610b4d565b5b835b81811015610bde5780610bca8882610b73565b845260208401935050602081019050610bb7565b5050509392505050565b600082601f830112610bfd57610bfc610a96565b5b6008610c0a848285610b88565b91505092915050565b600067ffffffffffffffff821115610c2e57610c2d610aac565b5b602082029050919050565b6000610c4c610c4784610c13565b610b0c565b90508060208402830185811115610c6657610c65610b4d565b5b835b81811015610c8f5780610c7b8882610b73565b845260208401935050602081019050610c68565b5050509392505050565b600082601f830112610cae57610cad610a96565b5b6001610cbb848285610c39565b91505092915050565b600080fd5b600060408284031215610cdf57610cde610cc4565b5b610ce96040610b0c565b90506000610cf984828501610b73565b6000830152506020610d0d84828501610b73565b60208301525092915050565b600067ffffffffffffffff821115610d3457610d33610aac565b5b602082029050919050565b6000610d52610d4d84610d19565b610b0c565b90508060208402830185811115610d6c57610d6b610b4d565b5b835b81811015610d955780610d818882610b73565b845260208401935050602081019050610d6e565b5050509392505050565b600082601f830112610db457610db3610a96565b5b6002610dc1848285610d3f565b91505092915050565b600060808284031215610de057610ddf610cc4565b5b610dea6040610b0c565b90506000610dfa84828501610d9f565b6000830152506040610e0e84828501610d9f565b60208301525092915050565b600067ffffffffffffffff821115610e3557610e34610aac565b5b602082029050919050565b6000610e53610e4e84610e1a565b610b0c565b90508060408402830185811115610e6d57610e6c610b4d565b5b835b81811015610e965780610e828882610cc9565b845260208401935050604081019050610e6f565b5050509392505050565b600082601f830112610eb557610eb4610a96565b5b6002610ec2848285610e40565b91505092915050565b60006102408284031215610ee257610ee1610cc4565b5b610eec60a0610b0c565b90506000610efc84828501610cc9565b6000830152506040610f1084828501610dca565b60208301525060c0610f2484828501610dca565b604083015250610140610f3984828501610dca565b6060830152506101c0610f4e84828501610ea0565b60808301525092915050565b60008060006103608486031215610f7457610f73610a91565b5b6000610f8286828701610be8565b935050610100610f9486828701610c99565b925050610120610fa686828701610ecb565b9150509250925092565b60008115159050919050565b610fc581610fb0565b82525050565b6000602082019050610fe06000830184610fbc565b92915050565b7f4e487b7100000000000000000000000000000000000000000000000000000000600052603260045260246000fd5b600082825260208201905092915050565b7f76657269666965722d6774652d736e61726b2d7363616c61722d6669656c6400600082015250565b600061105c601f83611015565b915061106782611026565b602082019050919050565b6000602082019050818103600083015261108b8161104f565b9050919050565b7f4e487b7100000000000000000000000000000000000000000000000000000000600052601160045260246000fd5b60006110cc82610b52565b91506110d783610b52565b92508282019050808211156110ef576110ee611092565b5b92915050565b7f6164646974696f6e206661696c65640000000000000000000000000000000000600082015250565b600061112b600f83611015565b9150611136826110f5565b602082019050919050565b6000602082019050818103600083015261115a8161111e565b9050919050565b7f7363616c6172206d756c206661696c6564000000000000000000000000000000600082015250565b6000611197601183611015565b91506111a282611161565b602082019050919050565b600060208201905081810360008301526111c68161118a565b9050919050565b7f4e487b7100000000000000000000000000000000000000000000000000000000600052601260045260246000fd5b600061120782610b52565b915061121283610b52565b925082611222576112216111cd565b5b828206905092915050565b600061123882610b52565b915061124383610b52565b925082820390508181111561125b5761125a611092565b5b92915050565b600061126c82610b52565b915061127783610b52565b925082820261128581610b52565b9150828204841483151761129c5761129b611092565b5b5092915050565b7f70616972696e67206661696c6564000000000000000000000000000000000000600082015250565b60006112d9600e83611015565b91506112e4826112a3565b602082019050919050565b60006020820190508181036000830152611308816112cc565b905091905056fea2646970667358221220e257c16312e19496c6655f0f23241c716437d515e2c7fd0ef575a31d909bc8e764736f6c634300081b0033",
  "linkReferences": {},
  "deployedLinkReferences": {}
}