{
  "_format": "hh-sol-artifact-1",
  "contractName": "Groth16VerifyBn254",
  "sourceName": "contracts/Groth16VerifyBn254.sol",
  "abi": [
    {
      "inputs": [],
      "name": "getPairingResult",
      "outputs": [
        {
          "internalType": "bool",
          "name": "",
          "type": "bool"
        }
      ],
      "stateMutability": "view",
      "type": "function"
    },
    {
      "inputs": [],
      "name": "pairingResult",
      "outputs": [
        {
          "internalType": "bool",
          "name": "",
          "type": "bool"
        }
      ],
      "stateMutability": "view",
      "type": "function"
    },
    {
      "inputs": [
        {
          "internalType": "uint256[8]",
          "name": "proof",
          "type": "uint256[8]"
        },
        {
          "internalType": "uint256[769]",
          "name": "input",
          "type": "uint256[769]"
        },
        {
          "components": [
            {
              "components": [
                {
                  "internalType": "uint256",
                  "name": "X",
                  "type": "uint256"
                },
                {
                  "internalType": "uint256",
                  "name": "Y",
                  "type": "uint256"
                }
              ],
              "internalType": "struct Pairing.G1Point",
              "name": "alpha1",
              "type": "tuple"
            },
            {
              "components": [
                {
                  "internalType": "uint256[2]",
                  "name": "X",
                  "type": "uint256[2]"
                },
                {
                  "internalType": "uint256[2]",
                  "name": "Y",
                  "type": "uint256[2]"
                }
              ],
              "internalType": "struct Pairing.G2Point",
              "name": "beta2",
              "type": "tuple"
            },
            {
              "components": [
                {
                  "internalType": "uint256[2]",
                  "name": "X",
                  "type": "uint256[2]"
                },
                {
                  "internalType": "uint256[2]",
                  "name": "Y",
                  "type": "uint256[2]"
                }
              ],
              "internalType": "struct Pairing.G2Point",
              "name": "gamma2",
              "type": "tuple"
            },
            {
              "components": [
                {
                  "internalType": "uint256[2]",
                  "name": "X",
                  "type": "uint256[2]"
                },
                {
                  "internalType": "uint256[2]",
                  "name": "Y",
                  "type": "uint256[2]"
                }
              ],
              "internalType": "struct Pairing.G2Point",
              "name": "delta2",
              "type": "tuple"
            },
            {
              "components": [
                {
                  "internalType": "uint256",
                  "name": "X",
                  "type": "uint256"
                },
                {
                  "internalType": "uint256",
                  "name": "Y",
                  "type": "uint256"
                }
              ],
              "internalType": "struct Pairing.G1Point[770]",
              "name": "public_input",
              "type": "tuple[770]"
            }
          ],
          "internalType": "struct Groth16VerifyBn254.VerifyingKey",
          "name": "vk",
          "type": "tuple"
        }
      ],
      "name": "verifyProof",
      "outputs": [],
      "stateMutability": "nonpayable",
      "type": "function"
    }
  ],
  "bytecode": "0x6080604052348015600f57600080fd5b5061134d8061001f6000396000f3fe608060405234801561001057600080fd5b50600436106100415760003560e01c806319bef6d914610046578063b771804014610062578063c110f9f114610080575b600080fd5b610060600480360381019061005b9190610f61565b61009e565b005b61006a610366565b6040516100779190610fd3565b60405180910390f35b61008861037c565b6040516100959190610fd3565b60405180910390f35b6100a6610991565b6040518060400160405280856000600881106100c5576100c4610fee565b5b60200201518152602001856001600881106100e3576100e2610fee565b5b60200201518152508160000181905250604051806040016040528060405180604001604052808760026008811061011d5761011c610fee565b5b602002015181526020018760036008811061013b5761013a610fee565b5b6020020151815250815260200160405180604001604052808760046008811061016757610166610fee565b5b602002015181526020018760056008811061018557610184610fee565b5b602002015181525081525081602001819052506040518060400160405280856006600881106101b7576101b6610fee565b5b60200201518152602001856007600881106101d5576101d4610fee565b5b602002015181525081604001819052506000604051806040016040528060008152602001600081525090506102278184608001516000610302811061021d5761021c610fee565b5b602002015161038d565b905060005b610301811015610312577f30644e72e131a029b85045b68181585d2833e84879b9709143e1f593f00000018582610301811061026b5761026a610fee565b5b6020020151106102b0576040517f08c379a00000000000000000000000000000000000000000000000000000000081526004016102a79061107a565b60405180910390fd5b610303826102fe86608001516001856102c991906110c9565b61030281106102db576102da610fee565b5b6020020151888561030181106102f4576102f3610fee565b5b602002015161048b565b61038d565b9150808060010191505061022c565b506103476103238360000151610563565b83602001518560000151866020015185886040015188604001518a60600151610621565b6000806101000a81548160ff0219169083151502179055505050505050565b60008060009054906101000a900460ff16905090565b60008054906101000a900460ff1681565b6103956109c4565b61039d6109de565b8360000151816000600481106103b6576103b5610fee565b5b6020020181815250508360200151816001600481106103d8576103d7610fee565b5b6020020181815250508260000151816002600481106103fa576103f9610fee565b5b60200201818152505082602001518160036004811061041c5761041b610fee565b5b602002018181525050600060608360c08460066107d05a03fa9050806000810361044257fe5b5080610483576040517f08c379a000000000000000000000000000000000000000000000000000000000815260040161047a90611149565b60405180910390fd5b505092915050565b6104936109c4565b61049b610a00565b8360000151816000600381106104b4576104b3610fee565b5b6020020181815250508360200151816001600381106104d6576104d5610fee565b5b60200201818152505082816002600381106104f4576104f3610fee565b5b602002018181525050600060608360808460076107d05a03fa9050806000810361051a57fe5b508061055b576040517f08c379a0000000000000000000000000000000000000000000000000000000008152600401610552906111b5565b60405180910390fd5b505092915050565b61056b6109c4565b60008260000151148015610583575060008260200151145b156105a6576040518060400160405280600081526020016000815250905061061c565b6040518060400160405280836000015181526020017f30644e72e131a029b85045b68181585d97816a916871ca8d3c208c16d87cfd4784602001516105eb9190611204565b7f30644e72e131a029b85045b68181585d97816a916871ca8d3c208c16d87cfd476106169190611235565b81525090505b919050565b60008060405180608001604052808b8152602001898152602001878152602001858152509050600060405180608001604052808b815260200189815260200187815260200185815250905060006018905060008167ffffffffffffffff81111561068e5761068d610ab1565b5b6040519080825280602002602001820160405280156106bc5781602001602082028036833780820191505090505b50905060005b60048110156108f45760006006826106da9190611269565b90508582600481106106ef576106ee610fee565b5b6020020151600001518360008361070691906110c9565b8151811061071757610716610fee565b5b60200260200101818152505085826004811061073657610735610fee565b5b6020020151602001518360018361074d91906110c9565b8151811061075e5761075d610fee565b5b60200260200101818152505084826004811061077d5761077c610fee565b5b60200201516000015160006002811061079957610798610fee565b5b6020020151836002836107ac91906110c9565b815181106107bd576107bc610fee565b5b6020026020010181815250508482600481106107dc576107db610fee565b5b6020020151600001516001600281106107f8576107f7610fee565b5b60200201518360038361080b91906110c9565b8151811061081c5761081b610fee565b5b60200260200101818152505084826004811061083b5761083a610fee565b5b60200201516020015160006002811061085757610856610fee565b5b60200201518360048361086a91906110c9565b8151811061087b5761087a610fee565b5b60200260200101818152505084826004811061089a57610899610fee565b5b6020020151602001516001600281106108b6576108b5610fee565b5b6020020151836005836108c991906110c9565b815181106108da576108d9610fee565b5b6020026020010181815250505080806001019150506106c2565b506108fd610a22565b6000602082602086026020860160086107d05a03fa9050806000810361091f57fe5b5080610960576040517f08c379a0000000000000000000000000000000000000000000000000000000008152600401610957906112f7565b60405180910390fd5b60008260006001811061097657610975610fee565b5b60200201511415965050505050505098975050505050505050565b60405180606001604052806109a46109c4565b81526020016109b1610a44565b81526020016109be6109c4565b81525090565b604051806040016040528060008152602001600081525090565b6040518060800160405280600490602082028036833780820191505090505090565b6040518060600160405280600390602082028036833780820191505090505090565b6040518060200160405280600190602082028036833780820191505090505090565b6040518060400160405280610a57610a6a565b8152602001610a64610a6a565b81525090565b6040518060400160405280600290602082028036833780820191505090505090565b6000604051905090565b600080fd5b600080fd5b6000601f19601f8301169050919050565b7f4e487b7100000000000000000000000000000000000000000000000000000000600052604160045260246000fd5b610ae982610aa0565b810181811067ffffffffffffffff82111715610b0857610b07610ab1565b5b80604052505050565b6000610b1b610a8c565b9050610b278282610ae0565b919050565b600067ffffffffffffffff821115610b4757610b46610ab1565b5b602082029050919050565b600080fd5b6000819050919050565b610b6a81610b57565b8114610b7557600080fd5b50565b600081359050610b8781610b61565b92915050565b6000610ba0610b9b84610b2c565b610b11565b90508060208402830185811115610bba57610bb9610b52565b5b835b81811015610be35780610bcf8882610b78565b845260208401935050602081019050610bbc565b5050509392505050565b600082601f830112610c0257610c01610a9b565b5b6008610c0f848285610b8d565b91505092915050565b600067ffffffffffffffff821115610c3357610c32610ab1565b5b602082029050919050565b6000610c51610c4c84610c18565b610b11565b90508060208402830185811115610c6b57610c6a610b52565b5b835b81811015610c945780610c808882610b78565b845260208401935050602081019050610c6d565b5050509392505050565b600082601f830112610cb357610cb2610a9b565b5b610301610cc1848285610c3e565b91505092915050565b600080fd5b600060408284031215610ce557610ce4610cca565b5b610cef6040610b11565b90506000610cff84828501610b78565b6000830152506020610d1384828501610b78565b60208301525092915050565b600067ffffffffffffffff821115610d3a57610d39610ab1565b5b602082029050919050565b6000610d58610d5384610d1f565b610b11565b90508060208402830185811115610d7257610d71610b52565b5b835b81811015610d9b5780610d878882610b78565b845260208401935050602081019050610d74565b5050509392505050565b600082601f830112610dba57610db9610a9b565b5b6002610dc7848285610d45565b91505092915050565b600060808284031215610de657610de5610cca565b5b610df06040610b11565b90506000610e0084828501610da5565b6000830152506040610e1484828501610da5565b60208301525092915050565b600067ffffffffffffffff821115610e3b57610e3a610ab1565b5b602082029050919050565b6000610e59610e5484610e20565b610b11565b90508060408402830185811115610e7357610e72610b52565b5b835b81811015610e9c5780610e888882610ccf565b845260208401935050604081019050610e75565b5050509392505050565b600082601f830112610ebb57610eba610a9b565b5b610302610ec9848285610e46565b91505092915050565b600061c2408284031215610ee957610ee8610cca565b5b610ef360a0610b11565b90506000610f0384828501610ccf565b6000830152506040610f1784828501610dd0565b60208301525060c0610f2b84828501610dd0565b604083015250610140610f4084828501610dd0565b6060830152506101c0610f5584828501610ea6565b60808301525092915050565b6000806000620123608486031215610f7c57610f7b610a96565b5b6000610f8a86828701610bed565b935050610100610f9c86828701610c9e565b925050616120610fae86828701610ed2565b9150509250925092565b60008115159050919050565b610fcd81610fb8565b82525050565b6000602082019050610fe86000830184610fc4565b92915050565b7f4e487b7100000000000000000000000000000000000000000000000000000000600052603260045260246000fd5b600082825260208201905092915050565b7f76657269666965722d6774652d736e61726b2d7363616c61722d6669656c6400600082015250565b6000611064601f8361101d565b915061106f8261102e565b602082019050919050565b6000602082019050818103600083015261109381611057565b9050919050565b7f4e487b7100000000000000000000000000000000000000000000000000000000600052601160045260246000fd5b60006110d482610b57565b91506110df83610b57565b92508282019050808211156110f7576110f661109a565b5b92915050565b7f6164646974696f6e206661696c65640000000000000000000000000000000000600082015250565b6000611133600f8361101d565b915061113e826110fd565b602082019050919050565b6000602082019050818103600083015261116281611126565b9050919050565b7f7363616c6172206d756c206661696c6564000000000000000000000000000000600082015250565b600061119f60118361101d565b91506111aa82611169565b602082019050919050565b600060208201905081810360008301526111ce81611192565b9050919050565b7f4e487b7100000000000000000000000000000000000000000000000000000000600052601260045260246000fd5b600061120f82610b57565b915061121a83610b57565b92508261122a576112296111d5565b5b828206905092915050565b600061124082610b57565b915061124b83610b57565b92508282039050818111156112635761126261109a565b5b92915050565b600061127482610b57565b915061127f83610b57565b925082820261128d81610b57565b915082820484148315176112a4576112a361109a565b5b5092915050565b7f70616972696e67206661696c6564000000000000000000000000000000000000600082015250565b60006112e1600e8361101d565b91506112ec826112ab565b602082019050919050565b60006020820190508181036000830152611310816112d4565b905091905056fea2646970667358221220334ef320bee93a82dd4c1d0322f226b0664aefe7adb4baefc487bb5f4ad86b0364736f6c634300081b0033",
  "linkReferences": {},
  "deployedLinkReferences": {}
}